:10200000008000207D5901001D5601006559010026
:1020100000000000000000000000000000000000C0
:1020200000000000000000000000000065590100F1
:10203000000000000000000065590100F95901008E
:102040006559010065590100655901006559010094
:10205000C955010065590100D91D010069590100E8
:10206000655901000127010065590100655901000A
:1020700091250100655901001127010065590100F2
:102080006559010065590100655901006559010054
:102090000000000065590100655901006559010003
:1020A0006559010065590100655901006559010034
:1020B0000000000010B5064C2378002B07D1054B1B
:1020C000002B02D0044800E000BF0123237010BDA4
:1020D000E002002000000000F0F40100044B10B505
:1020E000002B03D00349044800E000BF10BDC046E8
:1020F00000000000E4020020F0F401007047C04638
:10210000F0B5D64646464F46C0B5C44CA5441BA8BC
:1021100000F0A6F91BA800F0FFF909A800F0C6FA24
:102120001BA909A800F0C4FABD4B01AE6B4418000E
:1021300000F0E0FABA4B09A96B44180000F0DCFA91
:10214000B74B09A86B44190000F0B8FA31A800F0A9
:1021500081FC31A800F080FC31A909A800F0B0FA98
:1021600012A807F037FF09A912A807F03DFF12A92E
:1021700009A800F0A7FAB7A809F03CFEE12109AAD6
:102180008902B7A809F042FEB7A909A800F09CFA95
:1021900004A800F05BFE012109A800F097FAA14B0A
:1021A000B0469A46370035003000B7A909F012FF53
:1021B000390012A809F0BEFD04003800464613F0AD
:1021C0007DFA631C78D109A800F092FA01284BD15E
:1021D000B7A809F079FF31A909A800F071FA012127
:1021E00009A800F073FA31AB994609A800F080FA0B
:1021F000012804D009A800F079FA042864D030003E
:10220000B7A909F0E7FE290012A809F093FD040020
:1022100028002E0013F052FA631CE6D109A800F042
:1022200065FA01284CD009A800F060FA022847D0CE
:1022300009A800F05BFA0328D7D1B7A809F044FF3A
:102240008620800018F06EFB040000F003FC2000E4
:1022500000F002FC4846210000F02AFC210009A8F9
:1022600000F02EFAA146C0E709A800F041FA0228C2
:1022700022D109A800F03AFA022800D1C3E009A847
:1022800000F034FA032800D1BDE009A800F02EFACE
:10229000042811D1B7A809F017FF09A904A800F074
:1022A000D7FD011E00D0B5E05146B7A809F03CFFAC
:1022B000012109A800F00AFA0A2013F0B1FB73E724
:1022C000B7A809F001FF90E7B7A809F0FDFE31A813
:1022D00000F04AFC010009A800F0F2F90024504B7C
:1022E0006B44180000F096FA81464D4B6B44180081
:1022F00000F08EFA4B465843A04226DD09A904A8F7
:1023000000F0A6FD09A800F0F1F901281DD0444B0A
:1023100001346B44180000F07BFA0100200015F036
:10232000DDFA002907D131A800F01EFC010009A840
:1023300000F0C6F9D3E709A800F0D2F900F014FCC8
:10234000010009A800F0BCF9C9E75146B7A809F097
:10235000EBFE31A909A800F0B3F9314B00246B441E
:10236000180000F055FA2E4B811C6B44180000F049
:10237000EBF931A909A800F0A3F9294B6B44180027
:1023800000F046FA002817D0254B6B44180000F0E7
:102390003FFAA0421CD009A800F0A2F900F0E4FB2B
:1023A000010009A800F08CF91D4B01346B441800A2
:1023B00000F02EFA0028E7D131A909A800F080F931
:1023C00009A8012100F082F90A2013F029FBEBE6AD
:1023D00009A800F085F9002801D018F0ADFA104BDB
:1023E00001246B44180000F013FA0D4B411E6B449E
:1023F000180000F0A9F931A800F0B6FB010009A807
:1024000000F05EF9B9E7B7A809F05EFE0A2013F004
:1024100007FBC9E6B7A809F02BFE45E720F1FFFF4F
:10242000D408000060E4010010B518F07BFA10BD7C
:1024300010B518F081FA10BD002300B583B000225A
:1024400000210093024810F0E5F903B000BDC0463A
:10245000FC0200200122014B1A7070470403002087
:102460007047C046F8B5040000250EF001FD0126B6
:102470000DF018F92000234BA561E5612662666224
:10248000A36218300EF03AF9F02302272000E3632C
:10249000C43B27636663A5632C30E6540DF0F6FD5C
:1024A000802320005B042365E76465654C300DF0F4
:1024B0005DFE023E0122144900200EF0E3F93000D7
:1024C0000EF04CFA0122310001200EF0DBF9300051
:1024D0000EF044FA20236360193BE560A360676156
:1024E0002561201D0EF0BEFA2000084B2100636418
:1024F000074B2564A36440300FF052F905480EF0F5
:1025000041FBF8BD010001000086008600007A440E
:102510000024744BE5470A00002210B50400114B5B
:1025200011481A700FF0A8FB0221102013F000FDD3
:102530000121132013F0FCFC0121122013F0F8FC00
:1025400002210F2013F0F4FC032208490F2012F09F
:10255000A9FD00F039F800F043F82000FFF782FFF2
:1025600010BDC04604030020A00600205524000032
:10257000014B19707047C046040300200068704783
:10258000014B18787047C0460403002010B50D4C6D
:10259000A14200D92100013A0160511E8A414271D5
:1025A000012B06D0032B07D0002B08D0002303718A
:1025B00010BD03230371FBE702230371F8E7012336
:1025C0000371F5E700366E0110B50121132013F0F9
:1025D000F3FC10BD10B50021132013F0EDFC10BD6D
:1025E00010B50121122013F0E7FC10BD10B5002139
:1025F000122013F0E1FC10BD144B70B5040098429A
:102600000CD883001B185B0007D00001001B0321BE
:10261000400114F0F3FF0138FDD170BDFA218900AB
:1026200015F072F80D00601A642114F0E7FF13F042
:10263000F7F9AB005B195B00EFD02801401B0321C9
:10264000400114F0DBFF0138FDD1E6E7650600002C
:10265000F0B5C6460D4B0E4E15000700884606CB5A
:1026600000B530000FF00EFA002D09D00024395DBE
:1026700030000FF049FA434618550134AC42F6D108
:1026800030000FF02FFA04BC9046F0BD0803002084
:10269000A006002010B50223012202490248FFF7DC
:1026A00075FF10BD001BB700080300207047C0462F
:1026B000002303600233C16043607047416170478B
:1026C0008161704701627047016170470160704726
:1026D0004160704781607047C068704740697047CB
:1026E00080697047006A70470069704700687047EA
:1026F000406870477047C046012310B50400F022BF
:102700005B4223600233E360A360002322610A4A34
:102710006360A350043AA35010336361FC239B0011
:10272000A361064B0800E361054B2362FFF7D4FF6A
:10273000FFF724FF606210BDA40500000080E344A1
:1027400000401C4601607047C1607047816070475F
:1027500082B06B465A60044A00919446604406CBAE
:1027600006C002B07047C046AC05000084B010B58A
:102770000492089A059393009B189B00C018064B7F
:1027800003919C4603AC60440ECC0EC00CCC0CC034
:1027900010BC08BC04B01847B40500008132FF32F9
:1027A000920082185160704784B010B50492089A64
:1027B000059393009B189B00C0188223DB009C4666
:1027C00060440300039103AC07CC07C306CC06C3E7
:1027D00010BC08BC04B0184784B010B50492089A25
:1027E000059393009B189B00C0189B23DB009C461D
:1027F00060440300039103AC07CC07C306CC06C3B7
:1028000010BC08BC04B018474160704700687047AE
:10281000C0687047806870470069704740697047BA
:1028200080697047C0697047406A7047B523DB0014
:10283000C0587047B423DB00C0587047034B10B535
:102840009C460300614414C914C310BDAC050000CC
:10285000014BC0587047C046A405000093009B1868
:102860009B00C918044B30B59C460300614434C931
:1028700034C314C914C330BDB40500008131FF3125
:10288000890041184868704793009B189B00C9183D
:102890008223DB009C46030030B5614434C934C355
:1028A00014C914C330BDC04693009B189B00C918BF
:1028B0009B23DB009C46030030B5614434C934C31C
:1028C00014C914C330BDC0464068704728307047F3
:1028D00082B0F0B5DE464E4657464546E0B5C1B03B
:1028E0004A924F9A12A890460C1C4B9302930CF0FC
:1028F000EDFB149B201C9A46159B139E0193169B7F
:10290000994617F0C7FE4E4A4E4B15F003F80028C3
:102910001CD14D49201C15F037F8002816D14B4921
:10292000201C15F031F8002805D14949201C15F06C
:102930002BF8051E6FD000220023069207931B235D
:1029400006A808930CF0F8FF022009E000220023FB
:10295000069207931B2306A808930CF0EDFF0520B1
:102960000DF054F80123002010930DF057FFFE23C3
:102970009B050DAC039303239B46A3604B4663600A
:10298000019B012552460D930123200025820AAFA9
:10299000A3740B923B720A960DF0F2FA38000DF018
:1029A00021FB5A4618925246019B02361A93002385
:1029B0001D92B5404A461C93039B05A918A81B927B
:1029C0001F9319950CF088F94246029C1268230067
:1029D000944663441800059B20A95B009B080222D3
:1029E000209321930DF048FC4346A4465868059B6C
:1029F00060445A0092082092219220A902220DF0F0
:102A00003BFC41B03CBC90469946A246AB46F0BC6C
:102A100008BC02B018470022002306920793072340
:102A200006A808930CF088FF02200CF0EFFF0120AD
:102A300010950DF0F3FEFC239B050DAC03939AE774
:102A400052B81E85EB51E03F0000A0400000E1437A
:102A500000409C477047C046FE22012307215200D8
:102A60000373835008328350043A81508361852375
:102A700000229B0004314261C150084B8262C36353
:102A8000074B084A4363084B83648023DB050364D8
:102A9000064BC264836303657047C0460000FA4377
:102AA00000001BC40000164500408344000048435A
:102AB0000160704710B50422083018F074FD10BD95
:102AC000C163704741637047816470470164704718
:102AD0008163704781617047C164704701657047C9
:102AE000FC235B00C154704780239B00C15070479A
:102AF00081239B00C150704784239B00C1507047C5
:102B00008162704782239B00C154704783239B00DE
:102B1000C150704741607047416170471A3292005E
:102B2000115070474C329200115070474164704709
:102B3000C162704741737047C1617047016270475D
:102B4000416270470173704701617047416570478A
:102B500081657047C165704701667047416670477F
:102B60000163704781737047006870470830704791
:102B7000C06B7047406B7047806C7047006C70474B
:102B8000806B704780697047C06C7047006D7047FC
:102B9000FC235B00C05C7047FE235B00C05870479D
:102BA00080239B00C058704781239B00C05870470A
:102BB00000B51A2903D885239B00C15000BDFA2314
:102BC000DB01994200D1E1E017DCFA235B01994275
:102BD00000D1D6E03BDD704B994200D1BDE054DD21
:102BE0006E4B994200D19FE06D4B994200D0B4E00A
:102BF00085230D229B00C250E0E76A4B994200D129
:102C0000BAE013DD684B994200D1A1E064DDFA23FC
:102C10009B02994200D182E0FA23DB02994200D064
:102C20009BE085231A229B00C250C7E75F4B994265
:102C300000D197E044DD5E4B99426BD05D4B9942E9
:102C400000D08AE0852314229B00C250B6E75A4B7D
:102C5000994200D18BE00BDDFA231B01994254D03D
:102C6000564B994279D1852306229B00C250A5E795
:102C7000FA239B0099425CD0FA23DB00994210D1E1
:102C8000852303229B00C25098E74D4B99425AD0AE
:102C9000FA239B0199420BD185230A229B00C25043
:102CA0008CE7C82959D1852301229B00C25085E7B2
:102CB000444B994251D1852308229B00C2507DE7A5
:102CC000414B99423AD0FA231B02994210D18523F5
:102CD00011229B00C25071E7FA235B0299420FD088
:102CE0003A4B994239D1852317229B00C25065E7A0
:102CF000374B994231D185230F229B00C2505DE7AB
:102D0000852316229B00C25058E7852305229B008D
:102D1000C25053E7852313229B00C2504EE7852300
:102D200019229B00C25049E785230C229B00C25008
:102D300044E7852302229B00C2503FE785231022EF
:102D40009B00C2503AE7852309229B00C25035E719
:102D5000852318229B00C25030E785230B229B005D
:102D6000C2502BE7852312229B00C25026E7852301
:102D700004229B00C25021E7852315229B00C250EC
:102D80001CE7852307229B00C25017E785230E22EC
:102D90009B00C25012E7C046204E0000C05D0000FC
:102DA00030750000C0D40100A0FD0200084C0100F5
:102DB00000770100A0860100B80B0000701700002A
:102DC000E02E00001027000080BB00000071020010
:102DD000409C000084239B00C0587047806A704765
:102DE00082239B00C05C704783239B00C0587047C0
:102DF00085239B00C0587047406870474069704702
:102E00001A318900085870474C31890008587047BA
:102E1000406C7047C06A7047407B7047C06970471C
:102E2000006A7047406A7047007B704700697047CE
:102E3000406D7047806D7047C06D7047006E704781
:102E4000406E7047006B7047807B70477047C0468C
:102E500070B5040008002160FFF742FC25006060A7
:102E6000FFF784FE103501000422280018F09BFBB8
:102E70002800604918F057FB00284AD0267C432ED2
:102E800032D028005C4918F04EFB002844D0432E75
:102E900000D177E02800594918F045FB002862D09E
:102EA0002800574918F03FFB002800D181E0280096
:102EB000544918F038FB002800D18BE02800524913
:102EC00018F031FB002800D082E01030FFF7ACFA98
:102ED000050005F0D3F8E5602C20FFF7A5FA050002
:102EE00001F044FDA56025E06B78412BC9D1AB789A
:102EF000002BC6D11020FFF797FA050003F004FD60
:102F0000E5602C20FFF790FA050000F091F8A5602D
:102F100010E03E4D280070BD1030FFF785FA050027
:102F200005F09AFBE5603020FFF77EFA050001F01E
:102F300099FFA560E068216803681B689847051E33
:102F4000E8D1A068216803681B689847051EE1D195
:102F5000E068002801D0FFF76BFAA0680028D9D0FC
:102F6000FFF766FAD6E71030FFF75EFA050005F0C6
:102F7000C1FFE5602C20FFF757FA050002F0CAFBFD
:102F8000A560D7E76B78562B00D083E7AB78002B92
:102F900000D07FE71020FFF747FA050004F044F85F
:102FA000E5603420FFF740FA050000F0BFFBA560A4
:102FB000C0E71030FFF738FA050004F03DFCE5608B
:102FC0002C20FFF731FA050001F08CF8A560B1E77D
:102FD0000F4D9FE71030FFF727FA050006F094FB2E
:102FE000E5602C20FFF720FA050002F0D1FFA56074
:102FF000A0E7C04668E4010070E4010078E4010045
:103000007CE4010080E4010084E40100EF5500004D
:103010006C520000002300B583B000220021009311
:1030200002480FF0F7FB03B000BDC04610030020BC
:1030300010B5040003F0ECFB024B200008332360C2
:1030400010BDC04688E40100F0B5DE4657464E4646
:103050004546E0B5060091B0C06804920F00FFF746
:103060009BFD8146B068FFF7DDFBB16882460BA887
:10307000FFF7E4FB0B99F0680591FFF7BFFEB1681D
:1030800080468B4601003000013903F0C7FB5946EA
:10309000020006A8FFF7F8FB049B002B6CD03A0057
:1030A000002000219F00D719002508CA1B041C0C12
:1030B00000196941BA42F7D114F0E4FC041C0498E9
:1030C00015F094FC011C201C14F068FF17F0E2FAC4
:1030D0002D4B002215F0C6FC14F0B6FC52464946B2
:1030E0000BF0BCFFB369041C591E3000B56803F037
:1030F00095FB290002000BA8FFF7C6FB2349201C03
:1031000015F016F9059914F049FFB3690E90591E90
:103110003000B46803F082FB6A4602900EAB03CB2A
:1031200003C220000C9A0D9B0B99FFF73DFB414613
:10313000F068FFF765FE0890F068FFF74FFEB3698F
:10314000013001330793069012F064FC15F04EFC39
:10315000B1690A903000B46803F060FB6A460290DF
:1031600009AB03CB03C22000089B0699079AFFF71F
:103170001BFBB3690133B361002011B03CBC904626
:103180009946A246AB46F0BD0000E03F00007A44FD
:10319000F0B5DE464E4645465746E0B504008BB0D6
:1031A000C068FFF739FE8346E068FFF737FE8046C8
:1031B000E068FFF735FE8146E068FFF733FE4246E0
:1031C0000600002A01D14E468146E068FFF716FE50
:1031D0000700E068FFF7D4FC8246E068FFF7FEFDD9
:1031E0000500E068FFF7CEFC854200DBC8E0E06840
:1031F000FFF70EFEFC21051C8905504615F098F8D6
:10320000011C281C14F0C0FB002800D0A0E0E068DE
:10321000FFF7BAFC17F03EFA0022704B16F0FEFDE5
:103220006F4A704B16F08EFB14F00EFC39008501CE
:103230000190E068FFF7E4FD071C280017F004FA8E
:1032400002900391381C17F025FA674A674B16F075
:1032500079FB0B0002000298039916F0DFFD14F0D1
:10326000F3FBA842AD41E7686D42451B3800FFF70C
:10327000CFFD514615F076F9011C3800FFF756FCDA
:10328000802080010CF09EF9594B184080231B06CA
:1032900003430493574B0593574B184306900198EB
:1032A00040284ED8802300035B019D4247D20A2369
:1032B0002843C82508935B462D0628430790002B1A
:1032C00024D0C0204B46C0021843FA2300021B063C
:1032D000000A184309900622300004A90CF0CCFF24
:1032E0004346002B64D10121E068FFF725FC012152
:1032F0005B464B40D9B2E068FFF71CFC00200BB0E6
:103300003CBC90469946A246AB46F0BDC0204B4619
:10331000C0021843F42300021B06000A1843099058
:1033200004A9062230000CF0A7FF43460021002B21
:10333000DAD10121E068FFF7FFFB0121DBE72F4D28
:10334000B5E74020802300035B019D42AFD3F6E741
:10335000E0680137FFF76AFD87422FDA3900E0683D
:10336000FFF7DAFB3900E5682800FFF74DFD011C87
:103370002800FFF7DBFBE068FFF740FD070046E7AA
:10338000802080010CF01EF9194B0622034080209A
:103390000006184381231B0605930023049004A90B
:1033A000300006930793089309930CF065FFA5E797
:1033B0000021E068FFF7C0FB00219CE7E5682800DA
:1033C000FFF70CFD411C2800FFF79AFB0021E06885
:1033D000FFF7A2FB0021E568C6E7C0460000694090
:1033E000CA1DA0DC01CA9D3FC853823C25C8FD3FD1
:1033F000FFFEFF00020000A700010080FF0F000099
:10340000F8B5CE464746050080B500200DF0DCFA41
:10341000041E00D188E08023DB00984680238027AB
:103420009B039946BF040FE03C422AD1002C42DBAB
:103430004B461C4249D180200002044250D100205A
:103440000DF0C2FA041E6FD043461C42ECD080201F
:10345000C0000DF083FA0CF053FE0600A868FFF7D9
:1034600035FA31000BF018FFA868FFF72FFA320089
:1034700001002800FFF7E8FD2800FFF789FE3C4225
:10348000D4D0802080040DF069FA0CF039FE0600DB
:10349000A868FFF71BFA31000BF0FEFEA868FFF7E3
:1034A00015FA320001002800FFF7CEFD2800FFF7D3
:1034B0006FFE002CBCDA802000060DF04FFA0220CF
:1034C0000DF0E8FA972040002FE0802080030DF0F7
:1034D00045FA02200DF0DEFA802000020442AED050
:1034E0000DF03CFA0CF00CFE0400A868FFF7EEF9B2
:1034F00021000BF0D1FEA868FFF7E8F922000100D7
:103500002800FFF7A1FD0A200DF064FC0A2802D86C
:1035100000200DF037F80DF01FFC012300202B7563
:103520000DF052FA041E8FD100200CBC9046994633
:10353000F8BDC046F0B5CE4647460400002380B52E
:10354000237597B0A36108006160FFF7C7F8A0601A
:103550006068FFF7C5F82500E060FFF707FB10354E
:1035600004220100280018F01EF82900200003F0B2
:103570005DF981466068FFF7B7F82900060008F09A
:1035800055FC60680521FFF7A1F80A200DF022FC28
:103590000A282ED8012301214422012004ADAB5476
:1035A000423A04900591A06806920E93FFF73CF909
:1035B0008046E068FFF7E4FA011C404614F0B8FECC
:1035C00017F068F8504A514B16F0BCF914F03CFA69
:1035D000AB6A0138EB621290139028000CF028FFC0
:1035E00007E0237D002B3AD1300008F037FD00289A
:1035F0004FD16068FFF77AF805285ED16068FFF761
:103600006BF8FEF7BDFF00280AD06068FFF764F88A
:103610000021FEF7ADFF2000FFF7F2FE002861D188
:10362000A068FFF751F9A269831C05009342D8D224
:1036300001002000A76803F0F1F83900020004A897
:10364000FFF722F9E068049FFFF79CFA87424EDDFE
:10365000A068691CFFF7D8F8237D002BC4D029008F
:103660002000A76803F0DAF83900020004A8FFF789
:103670000BF9A068691CFFF7C7F8A369AB42B3D187
:1036800060680621FFF722F8300008F0E7FC002808
:10369000AFD06068FFF726F80500310004A808F0F5
:1036A00099FC04A9280008F045FB04A812F006F8CC
:1036B0006068FFF71BF80528A0D00A200DF08AFBF0
:1036C0000A2802D800200CF05DFF0021A068FFF757
:1036D0009BF80021E068FFF71FFAE0680021FFF780
:1036E0000FFA002017B00CBC90469946F0BD4B462F
:1036F0006A46029307AB03CB03C230000499059AD4
:10370000069B08F0E5FDA3E7FCA9F1D24D62503F0E
:10371000002300B583B000220021009302480FF07F
:1037200079F803B000BDC0461803002010B50400AE
:1037300003F06EF8024B20000833236010BDC04632
:10374000A8E40100F0B5D6464F4646468046C0B5CF
:10375000C0688EB092460E00FFF750FB4346010052
:10376000814640469F6803F059F83900020004A8DA
:10377000FFF78AF85346002B73D09A003100B21835
:1037800000270026002508C91B041C0C36196F41B0
:103790008A42F7D143465246DD6A5C693000002315
:1037A000390014F019F914F06DF916F073FF304B6D
:1037B000002215F057F914F047F92A1C21000BF0EC
:1037C0004DFC43469E684B465D1E2900041C404646
:1037D00003F024F83100020009A8FFF755F8254945
:1037E000201C14F0A5FD4346196B14F0D7FB43468B
:1037F00029000C9040469C6803F010F86A4602903D
:103800000CAB03CB03C220000A9A09990B9BFEF76D
:10381000CBFF4B465C1C4346D8680594FFF7DEFAA5
:103820000100484613F074FF0130049012F0F2F8E2
:1038300015F0DCF843464946089040469D6802F082
:10384000EDFF6A46029007AB03CB03C22800049940
:10385000069B059AFEF7A8FF43462100D868FFF7AC
:103860005BF900200EB01CBC90469946A246F0BD04
:103870000000E03F00007A4470B5050092B00A20D5
:103880000C000DF0A7FA0A2839D8002C08D0002027
:10389000012C01D012B070BD0CF074FE0020F9E7CD
:1038A000012444236A46D454032200230092019346
:1038B00002220123029203930223A868049309942D
:1038C0000A940B94FEF7B0FF061CE868FFF756F960
:1038D000011C301C14F02CFD061CE868FFF750F9A1
:1038E000011C301C14F05AFB14F096F803380D90AC
:1038F0000E9068460F940CF09BFD0020CAE701482B
:10390000C8E7C046F1550000F0B504008BB0C068B0
:103910000E00FFF771FA042828D8B04B80001B581E
:10392000E0689F46FFF76AFA0500E068FFF756FA7D
:103930000100280013F0D2FFE0680D00FFF74EFAF7
:103940000138854200D144E1E068FFF757FA0500ED
:10395000E068FFF743FA0700E068FFF713F97843E0
:10396000854203DB0521E068FFF7D4F8E068FFF744
:103970003BFA002800DC82E0E068FFF705F916F06A
:1039800089FE0022964B16F049FA964B964A15F09E
:10399000D9FF14F059F885010700E068FFF724FA11
:1039A0002B002D1A9D429B415B42ED1A80235B0147
:1039B0009D4200D38D4D3800402F00D94020030395
:1039C0002B43336016F040FE0022894B15F0BAFFFE
:1039D000060028000F0016F037FE864A864B15F0C9
:1039E000B1FF02000B003000390016F017FA16F094
:1039F00099FE0790E068A568FFF700FA0100200033
:103A000002F00CFF6A46029008AB03CB03C2280009
:103A10000599069A079BFEF7C7FEE068FFF7E0F9F5
:103A2000E568002816D02800FFF7DEF90600E068F8
:103A3000FFF7D0F9041C300014F092FF211C14F0A1
:103A400011F914F06DFF01002800FFF75FF8002066
:103A50000BB0F0BD2800FFF7C7F90600E068FFF7DC
:103A6000B9F9041C300014F07BFF211C14F07AFD1E
:103A700014F056FF01002800FFF748F8E7E7E06878
:103A8000FFF784F87BE7FFF7ABF900286FD1E06818
:103A9000FFF7B4F90500E068FFF7A0F9010028007E
:103AA00013F01CFF626AA36A94465B006344994268
:103AB00000DA5BE7042152E0FFF792F900283ED0DC
:103AC000E068FFF79BF90500E068FFF787F9010060
:103AD000280013F003FFA36A994200DA46E70221A7
:103AE00059E0FFF77DF900285DD1E068FFF786F91E
:103AF0000500E068FFF772F90100280013F0EEFE00
:103B0000A36A5B00994200DA30E70321E068FFF71F
:103B100001F82BE7FFF72EF8051CE068FFF72CF8FB
:103B2000011C281C13F030FF00284DD00121E06853
:103B3000FEF7E8FF0121E068FEF7ECFF16E7E0681A
:103B4000FFF75CF90500E068FFF748F9010028007D
:103B500013F0C4FE636A994200DA07E70221E068C5
:103B6000FEF7D8FF0121E068FEF7CCFFFEE6E06833
:103B7000FFF744F90500E068FFF730F9010028007D
:103B800013F0ACFEA26A636A94465B0063449942F8
:103B900000DAEBE60421E068FEF7BCFF0021E068F4
:103BA000FEF7B0FFE2E6E068FFF728F90500E068FD
:103BB000FFF714F90100280013F090FE636A5B0020
:103BC000994200DAD2E6A0E70021E068FEF79AFF0A
:103BD000B0E70021E068FEF79DFFB5E694E4010040
:103BE0000000694001CA9D3FCA1DA0DCFF0F000014
:103BF00000304140111331111331E13FF0B5D64689
:103C000046464F46C0B5040086B0C068FFF704F9C9
:103C10000600E068FFF702F90500E068FFF7F8F832
:103C200014F07EFE00284BD0236A83424FDAC01A7C
:103C300014F096FE011CE0680027FEF777FF002DC8
:103C40004CD18020A369800198460BF0BBFC8246D2
:103C5000002F4CD1002D00D098E0E36999466946C9
:103C60002000FFF751FE53464A48C822034018007F
:103C700080231B061843484B12060293009B0190B9
:103C80001B021B0A134303930A230493002E6CD0D8
:103C9000A0234A46DB021343FA221B0212061B0A28
:103CA00013434046052201A905930CF0E5FA3900BB
:103CB000E068FEF73FFF69426941E068FEF73CFFBC
:103CC000002006B01CBC90469946A246F0BD0021DB
:103CD000E0680127FEF72AFF002DB2D08020E369BB
:103CE000800198460BF06EFC8246002FB2D005236F
:103CF00069464344200099468027FFF705FE534656
:103D0000C82224483F0603401F43234B1206029358
:103D1000009B701E86411B021B0A134303930A2358
:103D2000E0200493F3237642C00430401B06A02613
:103D30009C464B46F6021E4336026044360A064352
:103D400001A940460522019705960CF095FA00233B
:103D5000029303930493812305221B06484601A97D
:103D6000019705930CF088FAA5E7A0234A46DB02E9
:103D70001343F3221B0212061B0A1343404605227B
:103D800001A9059301270CF077FA90E7A3699946FA
:103D900065E7C0467FFEFF00020000A7F0B5C646FB
:103DA000050000B500200CF00FFE041E00D186E0D7
:103DB00080278026FF00B60410E034422AD1002C70
:103DC0003FDB80208003044246D180200002044271
:103DD0004BD100200CF0F8FD041E70D03C42ECD01A
:103DE0008020C0000CF0BAFD0CF08AF98046A8686B
:103DF000FEF76CFD41460BF04FFAA868FEF766FD32
:103E0000424601002800FFF79DFC2800FFF7F6FE60
:103E10003442D4D0802080040CF0A0FD0CF070F966
:103E20008046A868FEF752FD41460BF035FAA868B7
:103E3000FEF74CFD424601002800FFF783FC002CF2
:103E4000BFDA802000060CF089FD02200CF022FE73
:103E5000802080030442B8D00CF080FD02200CF0DA
:103E600019FE802000020442B3D00CF077FD0CF064
:103E700047F90400A868FEF729FD21000BF00CFAB1
:103E8000A868FEF723FD220001002800FFF75AFC76
:103E90000A200CF09FFF0A2802D800200CF072FBC9
:103EA00006216868FEF712FC0021E868FEF732FE82
:103EB0000CF052FF00200CF087FD041E8ED1002074
:103EC00004BC9046F0BDC046F0B5040083B0C068A5
:103ED000FEF762FE6061A068FEF7A4FCA168E062E4
:103EE0006846FEF7ABFC009BE0682363FEF798FF93
:103EF000A061E068FEF796FFE061E068FEF78AFFE8
:103F00002062E068FEF76CFF00282FD0E068FEF723
:103F100033FE061CE068FEF72BFE071CE068FEF788
:103F200059FF391C051C301C14F01CFB16F0B2FBA9
:103F3000104A114B15F006FD0600281C0F0016F064
:103F4000A9FB02000B003000390015F0F5F816F05F
:103F500015FBA062E068FEF741FFC30F1B180020AD
:103F6000A26A5B109B1A636203B0F0BDE068FEF7C3
:103F700001FECEE7C853823C25C8FD3FF0B5C646DA
:103F8000040000B561608AB00800FEF7A7FBA060DE
:103F90006068FEF7A5FB2700E060FEF7E7FD10373D
:103FA00004220100380017F0FEFA3900200002F068
:103FB0003DFC80466068FEF797FB3900050007F07E
:103FC00035FF2000FFF780FF2000FFF717FE606835
:103FD0000521FEF77BFB00212000FFF74DFC04E0EC
:103FE000280008F03BF8002834D16068FEF77EFB1B
:103FF000052843D16068FEF76FFBFEF7C1FA002881
:10400000EED06068FEF768FB0021FEF7B1FA2000F1
:10401000FFF7C4FEA068FEF757FC0700E068FEF754
:10402000EDFE0138B842DBDD39002000A66802F061
:10403000F5FB3100020005A8FEF726FC05990029D2
:1040400035D1A068791CFEF7DFFB280008F006F8E0
:104050000028CAD06068FEF745FB0700290005A8C4
:1040600007F0B8FF05A9380007F064FE05A811F0B5
:1040700025FB6068FEF73AFB0528BBD00A200CF050
:10408000A9FE0A2802D800200CF07CFAA0680021C2
:10409000FEF7BAFBE0680021FEF73EFDE068002174
:1040A000FEF72EFD00200AB004BC9046F0BD43464A
:1040B0006A46029308AB41CB41C22800069A079B8F
:1040C00008F006F9BDE7C046002300B583B0002222
:1040D0000021009302480EF09DFB03B000BDC046D6
:1040E0002003002010B5040002F092FB024B2000D8
:1040F0000833236010BDC046B4E40100F0B5DE46CD
:1041000057464E464546E0B5060091B0C068049259
:104110000F00FEF741FD8146B068FEF783FBB168F2
:1041200082460BA8FEF78AFB0B99F0680591FEF713
:1041300065FEB1688B46411E3000884602F06EFB7A
:104140005946020006A8FEF79FFB049B002B67D090
:104150003A00002000219F00D719002508CA1B043F
:104160001C0C00196941BA42F7D113F08BFC041CF6
:10417000049814F03BFC011C201C13F00FFF16F0F8
:1041800089FA2B4B002214F06DFC13F05DFC5246B3
:1041900049460AF063FFB369041C591E3000B56834
:1041A00002F03CFB290002000BA8FEF76DFB214941
:1041B000201C14F0BDF8059913F0F0FEB3690E90C1
:1041C000591E3000B46802F029FB6A4602900EAB1B
:1041D00003CB03C220000C9A0B990D9BFEF7E4FA67
:1041E000F068FEF7FBFDB3690130013307930690D9
:1041F00011F010FC14F0FAFB41460A903000B4684C
:1042000002F00CFB6A46029009AB03CB03C220000C
:10421000089B0699079AFEF7C7FAB3690133B361A1
:10422000002011B03CBC90469946A246AB46F0BD7A
:104230000000E03F00007A4470B5050092B00A200B
:104240000C000CF0C7FD0A2845D8002C08D000202F
:10425000012C01D012B070BD0CF094F90020F9E7E8
:10426000012444236A46D45401220123009201937D
:104270000223A86802930A94FEF7D6FA0021061CCE
:10428000E868FEF7C1FD011C301C14F051F816F06F
:1042900001FA124A124B15F055FB13F0D5FB0E90A4
:1042A000A8680B94FEF7C0FA0121041CE868FEF729
:1042B000ABFD011C201C14F03BF816F0EBF9074A8B
:1042C000074B15F03FFB13F0BFFB0F9068460CF057
:1042D000AFF80020BEE70348BCE7C046FCA9F1D216
:1042E0004D62503FF1550000F0B5DE4657464E4650
:1042F0004546E0B5040095B0C068FEF78DFD059019
:10430000E068FEF78BFD8046E068FEF789FD814698
:10431000E068FEF787FD43460700002B00D0AFE0C2
:10432000E068FEF731FC051CE068FEF771FD002136
:1043300013F034FB002800D04EE1281C16F0AAF937
:104340000022C44B15F06AFDC34AC44B15F0FAFABB
:1043500013F07AFB85010600E068FEF70BFCCA4605
:104360008146280016F070F906900791484616F02D
:1043700091F9BB4ABB4B15F0E5FA02000B00069819
:10438000079915F04BFD13F05FFBB946A842AD410C
:104390006D42431B9B4680235B019B4501D3B24B7F
:1043A0009B463500402E00D94025280016F04CF9D8
:1043B0000022AE4B15F0C6FA060058460F0016F064
:1043C00043F9AB4AAB4B15F0BDFA02000B003000CD
:1043D000390015F023FD16F0A5F9E6680A903000C3
:1043E000FEF70CFD411C3000FEF796FBE068A66866
:1043F000FEF704FD0100200002F010FA6A46029068
:104400000BAB03CB03C230000899099A0A9BFEF755
:10441000CBF9E068FEF7E2FC0600E068FEF7B2FBCD
:10442000864200DA99E0802080010BF0CBF8924BB5
:104430000722034080200006184300230E930F93A9
:1044400010931193129381230D901B0650460DA9D2
:1044500013930BF011FF414648424141E068FEF7DB
:104460006BFB0121059BE0684B40D9B2FEF762FB74
:10447000002015B03CBC90469946A246AB46F0BD24
:104480008246E068012B11D0FEF77EFB16F002F9A0
:104490000022704B15F0C2FC6F4A704B15F052FAB7
:1044A00013F0D2FA0600850100206FE7FEF7B0FC9A
:1044B000002113F073FA002800D096E0E568280088
:1044C000FEF7A6FCFE21890514F04CF8011C28001B
:1044D000FEF72CFBE5682800FEF74CFB0021061CCC
:1044E000E068FEF78DFC011C301C13F0BBFB011CC7
:1044F0002800FEF7E7FAE068FEF746FB16F0CAF878
:104500000022544B15F08AFC534A544B15F01AFA0A
:1045100013F09AFA85010600E068FEF72BFB0121F3
:10452000071CE068FEF76CFC8346280016F08CF848
:10453000069007915946381C13F094FB16F0AAF820
:10454000474A484B15F0FEF902000B000698079900
:1045500015F064FC13F078FA18E7802080010BF066
:1045600031F8464B0202120A13430600E0680D932D
:10457000FEF706FB424913F0DBFE13F04DFA800014
:1045800080080E903C483F4B0640802010935B46CD
:1045900000060643C8202D031D430A2300060543D9
:1045A00005981293431E9841C023F4224042DB0435
:1045B00003401206E02094464A46C002104300021F
:1045C0006344000A18431390072250460DA90F9622
:1045D00011950BF051FE3EE7E6683000FEF7C8FA91
:1045E000011C3000FEF76EFAA7E6E068FEF7F6FB66
:1045F0000500E068FEF7C6FA854200DB5EE7E0688A
:10460000FEF7BAFA051CE068FEF7B2FA011C281C96
:1046100013F0A8FF0021051CE068FEF7F1FB011C68
:10462000281C13F0BBFC16F035F80022164B14F0D2
:1046300019FA15F0A3FF14F093F9011CE068FEF7D6
:1046400075FAE5682800FEF7C9FB411C2800FEF753
:1046500057FA33E700006940CA1DA0DC01CA9D3F3C
:10466000C853823C25C8FD3FFF0F00000030414089
:10467000111331111331E13FFFFEFF0000010080F3
:1046800000007A46020000A70000F83FF0B5C646D9
:10469000050000B50A200CF09DFB0A2800D989E02E
:1046A00000200CF06FFA00200CF08EF9041E7DD073
:1046B00080260023F600984612E080208004044201
:1046C00038D1002C4BDB80208003044252D1802063
:1046D0000002044257D100200CF076F9041E65D088
:1046E0003442EAD08020C0000CF038F90BF008FD0D
:1046F0000700A868FEF7EAF839000AF0CDFDA868BF
:10470000FEF7E4F83A0001002800FFF7F7FC2F005D
:104710002800FFF7E9FD43461C3738006B770BF0A4
:104720008DF8012338006B770BF088F88020800427
:104730000442C6D00CF012F90BF0E2FC0700A868A6
:10474000FEF7C4F839000AF0A7FDA868FEF7BEF826
:104750003A0001002800FFF7D1FC002CB3DA8020DA
:1047600000060CF0FBF802200CF094F98020800386
:104770000442ACD00CF0F2F802200CF08BF980204F
:1047800000020442A7D00CF0E9F80A200CF022FB4A
:104790000A2802D800200BF0F5FE0CF0DDFA012308
:1047A00000202B750CF010F9041E99D1002004BCD8
:1047B0009046F0BD0048FAE7F1550000F0B5C64656
:1047C0000400002500B561608AB008002575A56168
:1047D000FDF784FFA0606068FDF782FF2700E060BE
:1047E000FEF7C4F9103701000422380016F0DBFE92
:1047F0003900200002F01AF8012300222377243325
:10480000E5540333E584E2540223FF33E3834F4B43
:10481000804623626068FDF767FF3900050007F0F6
:1048200005FB60680521FDF751FF00212000FFF71F
:1048300003FD07E0237D002B3DD1280007F00EFC8F
:10484000002856D16068FDF751FF052865D16068E2
:10485000FDF742FFFDF794FE0028EBD06068FDF7FE
:104860003BFF0021FDF784FE2000FFF70FFFA0684B
:10487000FEF72AF8A369471C01009F42DAD2200004
:10488000A66801F0CBFF3100020005A8FDF7FCFF90
:1048900043466A46029308AB03CB03C22800079B3A
:1048A0000599069A07F014FD3900A068FDF7ACFFE2
:1048B000237D002BC1D0A068FEF706F80100070099
:1048C0002000A66801F0AAFF3100020005A8FDF74C
:1048D000DBFFA068791CFDF797FFA369BB42ACD151
:1048E00060680621FDF7F2FE280007F0B7FB0028FC
:1048F000A8D06068FDF7F6FE0700290005A807F0BC
:1049000069FB05A9380007F015FA05A810F0D6FED6
:104910006068FDF7EBFE052899D00A200CF05AFAE2
:104920000A2802D800200BF02DFEA0680021FDF718
:104930006BFFE0680021FEF7EFF8E0680021FEF76A
:10494000DFF800200AB004BC9046F0BD0101010070
:10495000002300B583B000220021009302480DF02F
:1049600059FF03B000BDC0462803002010B5040065
:1049700001F04EFF024B20000833236010BDC046FB
:10498000C0E40100F0B54546DE4657464E46E0B568
:1049900093088FB080460793002A00D1A7E08A468B
:1049A000802492000B00564D5244A40204E0294397
:1049B00019600433934208D018688103890B2042A0
:1049C000F5D1196004339342F6D1079B002B00D137
:1049D0008DE000235446994645462768380013F079
:1049E000BFFF6368804618009A4613F0B9FF41463E
:1049F000061C404613F09CFC311C8046301C13F012
:104A000097FC011C404613F02DF911F0CDFD8046B6
:104A1000380015F0E9FD534606000F00584215F026
:104A2000E3FD32003B0011F043FCA76804900591C0
:104A3000380013F095FFE368834618009A4613F098
:104A40008FFF5946061C584613F072FC311C8346F2
:104A5000301C13F06DFC011C584613F003F911F0E3
:104A6000A3FD8346380015F0BFFD534606000F0036
:104A7000584215F0B9FD32003B0011F019FC15F059
:104A800051FE061C0498059915F04CFE311C13F0DC
:104A900069FD061CE868FEF7CDF959460B904046C3
:104AA00013F07CFA174913F043FCAB69A969013391
:104AB0000A9301230C9028000D960993AE6801F02B
:104AC000ADFE6B4602900CAA03CA03C330000B9BD9
:104AD00009990A9AFDF780FEAB6910340133AB6186
:104AE00001239C46079BE1444B4500D075E700201D
:104AF0000FB03CBC90469946A246AB46F0BDC046BE
:104B00000000FCFF00401C4630B593B030216A46DF
:104B100001235218137083690400C0681193FEF7D3
:104B200087F90D90E068FEF787F90E90E068FEF7D0
:104B300089F90F90E068FEF787F940226B469B18D1
:104B4000187004A90CA80AF08FF9049812490BF008
:104B500041F8E0680499FDF7FBFF0122A16807A86E
:104B6000FDF77CFEA0680021FDF788FE012105907D
:104B7000A068FDF783FE6A4605AD686009ABA068D2
:104B8000039532CB32C2079A089B0499FDF7A0FE29
:104B9000002013B030BDC0460024744BF0B5C646AB
:104BA000060000B500200BF00FFF041E6DD080271B
:104BB0000123FF00984631E08025AD042C4228D027
:104BC0000A200CF007F90A2863D800200BF0DAFF5E
:104BD00028000BF0C3FE0BF093FA0400B068FDF759
:104BE00075FE21000AF058FBB068FDF76FFE220049
:104BF00001003000FFF7C6FE3000FFF785FF2648B2
:104C00000BF0C0FFF068FEF71DF9B3690138984258
:104C100032D900200BF0D8FE041E36D03C42CBD057
:104C20000A200CF0D7F80A2833D800200BF0AAFF8E
:104C30008020C0000BF092FE0BF062FA0500B06815
:104C4000FDF744FE29000AF027FBB068FDF73EFEA1
:104C50002A0001003000FFF795FE3000FFF754FFF7
:104C6000F068FEF7EFF8B36901389842A4D80CF069
:104C700073F8434633759FE70CF06EF84346002007
:104C800033750BF0A1FE041EC8D1002004BC904671
:104C9000F0BD09204042F9E7E5470A00F0B5CE46ED
:104CA00047460400002380B5237597B0A361080030
:104CB0006160FDF713FDA0606068FDF711FD250040
:104CC000E060FDF753FF103504220100280016F0C4
:104CD0006AFC2900200001F0A9FD80466068FDF70C
:104CE00003FD2900070007F0A1F860680521FDF722
:104CF000EDFC0A200CF06EF80A2800D99DE0442350
:104D0000012204AEF25401230022049205930423ED
:104D1000B3624B4B3000B3630BF08AFB6068FDF766
:104D2000E5FC052834D16068FDF7D6FCFDF728FCCA
:104D300000280AD06068FDF7CFFC0021FDF718FCC1
:104D40002000FFF72BFF00283FD1A068FDF7BCFD36
:104D5000A3690500834254D8237D002B3AD1380043
:104D600007F07CF90028D9D06068FDF7BBFC05008E
:104D70003900300007F02EF93100280006F0DAFF84
:104D8000300010F09BFC6068FDF7B0FC0528CAD02D
:104D90000A200CF01FF80A280AD800200BF0F2FBBA
:104DA00006216068FDF792FC0021E068FDF7B2FE85
:104DB0000021A068FDF728FD0021E068FDF7ACFEAA
:104DC000E0680021FDF79CFE002017B00CBC904667
:104DD0009946F0BDA36829002000994601F01EFD08
:104DE000494602003000FDF74FFDA068691CFDF741
:104DF0000BFDA3699D42B2D106216068FDF766FCF8
:104E0000ADE7A36801002000994601F007FD49467F
:104E100002003000FDF748FD43466A46029307ABA7
:104E200003CB03C2380031687268B36807F0C6F973
:104E3000A068691CFDF7E8FC8EE70248C5E7C0469C
:104E40003C060000F1550000002300B583B00022AD
:104E50000021009302480DF0DDFC03B000BDC04608
:104E60003003002010B5040001F0D2FC024B2000FA
:104E70000833236010BDC046CCE40100F0B5D6462F
:104E80004F4646468046C0B5C0688EB092460E007A
:104E9000FDF7B4FF43460100814640469F6801F09C
:104EA000BDFC3900020004A8FDF7EEFC5346002BC0
:104EB00073D09A003100B21800270026002508C9D7
:104EC0001B041C0C36196F418A42F7D143465246E7
:104ED0009D6A5C6930000023390012F07DFD12F0FC
:104EE000D1FD15F0D7FB304B002213F0BBFD12F0C3
:104EF000ABFD2A1C21000AF0B1F843469E684B46E0
:104F00005D1E2900041C404601F088FC31000200AF
:104F100009A8FDF7B9FC2549201C13F009FA4346FE
:104F2000D96A13F03BF8434629000C9040469C6830
:104F300001F074FC6A4602900CAB03CB03C2200064
:104F40000A9A09990B9BFDF72FFC4B465C1C4346C4
:104F5000D8680594FDF742FF0100484612F0D8FBDF
:104F60000130049010F056FD13F040FD43464946D1
:104F7000089040469D6801F051FC6A46029007ABDC
:104F800003CB03C228000499069B059AFDF70CFC8D
:104F900043462100D868FDF7BFFD00200EB01CBCC1
:104FA00090469946A246F0BD0000E03F00007A44DA
:104FB00070B5050092B00A200C000BF00BFF0A2818
:104FC00039D8002C08D00020012C01D012B070BDBF
:104FD0000BF0D8FA0020F9E7012444236A46D454A0
:104FE00003220023009201930222012302920393E1
:104FF0000223A868049309940A940B94FDF714FC07
:10500000061CE868FDF7BAFD011C301C13F090F98E
:10501000061CE868FDF7B4FD011C301C12F0BEFF51
:1050200012F0FAFC03380D900E9068460F940BF0C6
:10503000FFF90020CAE70148C8E7C046F155000063
:10504000F0B504008BB0C0680E00FDF7D5FE002857
:1050500000D1B5E0012821D1E068FDF7CFFE0500C1
:10506000E068FDF7BBFE0100280012F037FCE068A5
:105070000D00FDF7B3FE0138854200D1D0E0E068B5
:10508000FDF7BCFE0500E068FDF7A8FE0700E0683C
:10509000FDF778FD7843854200DBBCE0E068FDF772
:1050A000A3FE002800DC87E0E068FDF76DFD15F049
:1050B000F1FA00225D4B14F0B1FE5D4B5D4A14F035
:1050C00041FC12F0C1FC85010700E068FDF78CFE91
:1050D0002B002D1A9D429B415B42ED1A80235B0100
:1050E0009D4264D23800402F5FD803032B433360C6
:1050F00015F0AAFA0022504B14F024FC06002800F8
:105100000F0015F0A1FA4D4A4D4B14F01BFC0200A4
:105110000B003000390014F081FE15F003FB0790FE
:10512000E068A568FDF76AFE0100200001F076FB4B
:105130006A46029008AB03CB03C228000599069A81
:10514000079BFDF731FBE068FDF74AFEE5680028A4
:1051500016D12800FDF748FE0600E068FDF73AFE8C
:10516000041C300013F0FCFB211C13F0FBF913F0BE
:10517000D7FB01002800FDF7C9FC00200BB0F0BDF3
:105180002800FDF731FE0600E068FDF723FE041C51
:10519000300013F0E5FB211C12F064FD13F0C0FB9E
:1051A00001002800FDF7B2FCE7E740209DE738004A
:1051B000244D402F99D9F8E7E068FDF7E7FC76E742
:1051C000E068FDF7D5FC051CE068FDF7D5FC011C87
:1051D000281C12F0D9FB002818D10021E068FDF747
:1051E00091FCE5682800FDF7C3FC15F053FA164A58
:1051F000164B14F0A7FB15F0C1F901002800FDF7CC
:1052000085FC0121E068FDF785FC47E70121E068A6
:10521000FDF778FCE5E70521E068FDF77BFC3DE75D
:105220000021E068FDF776FC29E7C04600006940F0
:1052300001CA9D3FCA1DA0DC00304140111331114D
:105240001331E13FFF0F0000C853823C25C8FD3FEA
:10525000F0B5D64646464F46C0B5040086B0C06895
:10526000FDF7DAFD0600E068FDF7D8FD0500E0680F
:10527000FDF7CEFD13F054FB00284BD0236A834288
:105280004FDAC01A13F06CFB011CE0680027FDF731
:105290004DFC002D4CD18020A369800198460AF076
:1052A00091F98246002F4CD1002D00D098E0E3699F
:1052B000994669462000FFF7C3FE53464A48C82274
:1052C0000340180080231B061843484B1206029324
:1052D000009B01901B021B0A134303930A230493B0
:1052E000002E6CD0A0234A46DB021343FA221B0295
:1052F00012061B0A13434046052201A905930AF032
:10530000BBFF3900E068FDF715FC69426941E068C0
:10531000FDF712FC002006B01CBC90469946A24640
:10532000F0BD0021E0680127FDF700FC002DB2D0A0
:105330008020E369800198460AF044F98246002FF4
:10534000B2D0052369464344200099468027FFF7E1
:1053500077FE5346C82224483F0603401F43234B91
:1053600012060293009B701E86411B021B0A134308
:1053700003930A23E0200493F3237642C0043040D1
:105380001B06A0269C464B46F6021E43360260448E
:10539000360A064301A940460522019705960AF000
:1053A0006BFF0023029303930493812305221B06C2
:1053B000484601A9019705930AF05EFFA5E7A023DF
:1053C0004A46DB021343F3221B0212061B0A134355
:1053D0004046052201A9059301270AF04DFF90E7F9
:1053E000A369994665E7C0467FFEFF00020000A75B
:1053F000F0B5C646050000B500200BF0E5FA041E26
:1054000000D186E080278026FF00B60410E03442F9
:105410002AD1002C3FDB80208003044246D180202B
:10542000000204424BD100200BF0CEFA041E70D0D3
:105430003C42ECD08020C0000BF090FA0AF060FEF5
:105440008046A868FDF742FA414609F025FFA868A2
:10545000FDF73CFA424601002800FFF70FFD280047
:10546000FFF7F6FE3442D4D0802080040BF076FAA9
:105470000AF046FE8046A868FDF728FA414609F082
:105480000BFFA868FDF722FA424601002800FFF74B
:10549000F5FC002CBFDA802000060BF05FFA02203A
:1054A0000BF0F8FA802080030442B8D00BF056FAD3
:1054B00002200BF0EFFA802000020442B3D00BF080
:1054C0004DFA0AF01DFE0400A868FDF7FFF921005F
:1054D00009F0E2FEA868FDF7F9F9220001002800B2
:1054E000FFF7CCFC0A200BF075FC0A2802D800203C
:1054F0000BF048F806216868FDF7E8F80021E86835
:10550000FDF708FB0BF028FC00200BF05DFA041EF1
:105510008ED1002004BC9046F0BDC046F0B504001A
:1055200083B0C068FDF738FB6061A068FDF77AF9C9
:10553000A168A0626846FDF781F9009BE068E3621C
:10554000FDF76EFCA061E068FDF76CFCE061E068CF
:10555000FDF760FC2062E068FDF70EFB061CE068CA
:10556000FDF706FB071CE068FDF734FC391C051C41
:10557000301C12F0F7FF15F08DF80A4A0A4B14F0B0
:10558000E1F90600281C0F0015F084F802000B005A
:105590003000390013F0D0FD14F0F0FF60620020FD
:1055A00003B0F0BDC853823C25C8FD3FF0B5C646E8
:1055B000040000B561608AB00800FDF78FF8A060B4
:1055C0006068FDF78DF82700E060FDF7CFFA10372F
:1055D00004220100380015F0E6FF3900200001F038
:1055E00025F980466068FDF77FF83900050006F070
:1055F0001DFC2000FFF792FF2000FFF729FE6068E6
:105600000521FDF763F800212000FFF7D1FC04E03D
:10561000280006F023FD002834D16068FDF766F805
:10562000052843D16068FDF757F8FCF7A9FF00286B
:10563000EED06068FDF750F80021FCF799FF2000DC
:10564000FFF7D6FEA068FDF73FF90700E068FDF719
:10565000D5FB0138B842DBDD39002000A66801F037
:10566000DDF83100020005A8FDF70EF905990029C3
:1056700035D1A068791CFDF7C7F8280006F0EEFCCC
:105680000028CAD06068FDF72DF80700290005A89A
:1056900006F0A0FC05A9380006F04CFB05A810F0A8
:1056A0000DF86068FDF722F80528BBD00A200BF042
:1056B00091FB0A2802D800200AF064FFA0680021AC
:1056C000FDF7A2F8E0680021FDF726FAE068002166
:1056D000FDF716FA00200AB004BC9046F0BD434620
:1056E0006A46029308AB41CB41C22800069A079B49
:1056F00006F0EEFDBDE7C046002300B583B00022F2
:105700000021009302480DF085F803B000BDC046AB
:105710003803002010B5040001F07AF8024B200095
:105720000833236010BDC046D8E40100F0B5DE4662
:1057300057464E464546E0B5060091B0C068049213
:105740000F00FDF729FA8146B068FDF76BF8B168E4
:1057500082460BA8FDF772F80B99F0680591FDF7EA
:105760004DFBB1688B46411E3000884601F056F86B
:105770005946020006A8FDF787F8049B002B67D066
:105780003A00002000219F00D719002508CA1B04F9
:105790001C0C00196941BA42F7D112F073F9041CCC
:1057A000049813F023F9011C201C12F0F7FB14F0ED
:1057B00071FF2B4B002213F055F912F045F95246B8
:1057C000494609F04BFCB369041C591E3000B5680A
:1057D00001F024F8290002000BA8FDF755F8214933
:1057E000201C12F0A5FD059912F0D8FBB3690E90AC
:1057F000591E3000B46801F011F86A4602900EABF1
:1058000003CB03C220000C9A0B990D9BFCF7CCFF35
:10581000F068FDF7E3FAB3690130013307930690AE
:1058200010F0F8F813F0E2F841460A903000B4683E
:1058300000F0F4FF6A46029009AB03CB03C22000DC
:10584000089B0699079AFCF7AFFFB3690133B36170
:10585000002011B03CBC90469946A246AB46F0BD34
:105860000000E03F00007A4470B5050092B00A20C5
:105870000C000BF0AFFA0A2845D8002C08D0002005
:10588000012C01D012B070BD0AF07CFE0020F9E7B7
:10589000012444236A46D454012201230092019337
:1058A0000223A86802930A94FCF7BEFF0021061C9D
:1058B000E868FDF7A9FA011C301C12F039FD14F05C
:1058C000E9FE124A124B14F03DF812F0BDF80E90AA
:1058D000A8680B94FCF7A8FF0121041CE868FDF7F9
:1058E00093FA011C201C12F023FD14F0D3FE074A8A
:1058F000074B14F027F812F0A7F80F9068460AF04B
:1059000097FD0020BEE70348BCE7C046FCA9F1D2E2
:105910004D62503FF1550000F0B5DE4657464E4609
:105920004546E0B5040095B0C068FDF775FA0590EE
:10593000E068FDF773FA8046E068FDF771FA81468A
:10594000E068FDF76FFA43460700002B00D0A4E0A3
:10595000E068FDF719F914F09DFE0022BF4B14F02A
:105960005DFABF4ABF4B13F0EDFF12F06DF8012155
:1059700086010500E068FDF743FACA46814630001B
:1059800014F062FE06900791484614F083FEB64A72
:10599000B64B13F0D7FF02000B000698079914F0DE
:1059A0003DFA12F051F8B946B042B6417642831B37
:1059B0009B4680235B019B4501D3AD4B9B46402D0D
:1059C00000D94025280014F03FFE0022A94B13F017
:1059D000B9FF060058460F0014F036FEA64AA74B42
:1059E00013F0B0FF02000B003000390014F016FA7B
:1059F00014F098FEE6680A903000FDF7FFF9411CAC
:105A00003000FDF789F8E068A668FDF7F7F90100B6
:105A1000200000F003FF6A4602900BAB03CB03C2E9
:105A200030000899099A0A9BFCF7BEFEE068FDF772
:105A3000D5F90600E068FDF7A5F8864200DA91E0A6
:105A40008020800109F0BEFD8D4B0722034080209D
:105A50000006184300230E930F9310931193129393
:105A600081230D901B0650460DA913930AF004FCE8
:105A7000414648424141E068FDF75EF80121059B3F
:105A8000E0684B40D9B2FDF755F8002015B03CBC9A
:105A900090469946A246AB46F0BD8246E068012B8F
:105AA00011D0FDF771F814F0F5FD00226B4B14F0E6
:105AB000B5F96B4A6B4B13F045FF11F0C5FF0500BC
:105AC0008601002070E7FDF7A3F9002111F066FFC1
:105AD000002800D085E0E5682800FDF799F9FE214F
:105AE000890512F03FFD011C2800FDF71FF8E5684D
:105AF0002800FDF73FF80021061CE068FDF780F95B
:105B0000011C301C12F0AEF8011C2800FCF7DAFF73
:105B1000E068FDF739F814F0BDFD00224F4B14F09A
:105B20007DF94F4A4F4B13F00DFF11F08DFF8601A9
:105B30000500E068FDF71EF8071C300014F084FD36
:105B400006900791381C14F0A5FD474A474B13F007
:105B5000F9FE02000B000698079914F05FF911F0A6
:105B600073FF21E78020800109F02CFD454B0202E4
:105B7000120A13430600E0680D93FDF701F842494D
:105B800012F0D6FB11F048FF800080080E903C48D0
:105B90003E4B0640802010935B4600060643C8201B
:105BA0002D031D430A230006054305981293431E47
:105BB0009841C023F4224042DB0403401206E02057
:105BC00094464A46C002104300026344000A184348
:105BD0001390072250460DA90F9611950AF04CFB21
:105BE00046E7E068FDF7FAF80500E068FCF7CAFF51
:105BF000854200DB6FE7E068FCF7BEFF051CE0684C
:105C0000FCF7B6FF011C281C12F0ACFC0021051C9F
:105C1000E068FDF7F5F8011C281C12F0BFF914F03C
:105C200039FD00221A4B12F01DFF14F0A7FC12F0F0
:105C300097FE011CE068FCF779FFE5682800FDF796
:105C4000CDF8411C2800FCF75BFFE5682800FCF755
:105C50008FFF011C2800FCF735FF59E70000694061
:105C6000CA1DA0DC01CA9D3FC853823C25C8FD3F28
:105C7000FF0F000000304140111331111331E13F9B
:105C8000FFFEFF000001008000007A46020000A72E
:105C90000000E03FF0B5C646050000B50A200BF055
:105CA00099F80A2800D989E000200AF06BFF00204B
:105CB0000AF08AFE041E7DD080260023F600984656
:105CC00012E080208004044238D1002C4BDB80207D
:105CD0008003044252D180200002044257D10020A8
:105CE0000AF072FE041E65D03442EAD08020C00063
:105CF0000AF034FE0AF004FA0700A868FCF7E6FD93
:105D0000390009F0C9FAA868FCF7E0FD3A00010083
:105D10002800FFF70BFD2F002800FFF7FDFD43468D
:105D20001C3738006B7709F089FD012338006B7749
:105D300009F084FD802080040442C6D00AF00EFEE3
:105D40000AF0DEF90700A868FCF7C0FD390009F089
:105D5000A3FAA868FCF7BAFD3A0001002800FFF793
:105D6000E5FC002CB3DA802000060AF0F7FD0220E3
:105D70000AF090FE802080030442ACD00AF0EEFDD1
:105D800002200AF087FE802000020442A7D00AF019
:105D9000E5FD0A200BF01EF80A2802D800200AF0C0
:105DA000F1FB0AF0D9FF012300202B750AF00CFE4D
:105DB000041E99D1002004BC9046F0BD0048FAE7CB
:105DC000F1550000F0B5C6460400002500B561603D
:105DD0008AB008002575A561FCF780FCA0606068AA
:105DE000FCF77EFC2700E060FCF7C0FE10370100E6
:105DF0000422380015F0D7FB3900200000F016FD12
:105E00000123002223772433E5540333E584E2544D
:105E10000223FF33E3834F4B804623626068FCF725
:105E200063FC3900050006F001F860680521FCF705
:105E30004DFC00212000FFF717FD07E0237D002B1C
:105E40003DD1280006F00AF9002856D16068FCF719
:105E50004DFC052865D16068FCF73EFCFCF790FB23
:105E60000028EBD06068FCF737FC0021FCF780FBD2
:105E70002000FFF70FFFA068FCF726FDA369471C71
:105E800001009F42DAD22000A66800F0C7FC310072
:105E9000020005A8FCF7F8FC43466A46029308ABEB
:105EA00003CB03C22800079B0599069A06F010FA57
:105EB0003900A068FCF7A8FC237D002BC1D0A068A6
:105EC000FCF702FD010007002000A66800F0A6FC18
:105ED0003100020005A8FCF7D7FCA068791CFCF78C
:105EE00093FCA369BB42ACD160680621FCF7EEFBD2
:105EF000280006F0B3F80028A8D06068FCF7F2FB91
:105F00000700290005A806F065F805A9380005F086
:105F100011FF05A80FF0D2FB6068FCF7E7FB05282E
:105F200099D00A200AF056FF0A2802D800200AF069
:105F300029FBA0680021FCF767FCE0680021FCF762
:105F4000EBFDE0680021FCF7DBFD00200AB004BC9B
:105F50009046F0BD01010100002300B583B000228E
:105F60000021009302480CF055FC03B000BDC04670
:105F700040030020002300B583B0002200210093DD
:105F800002480CF047FC03B000BDC04648030020A7
:105F900010B5040000F03CFC024B200008332360E5
:105FA00010BDC046E4E40100F0B5DE4657464E465B
:105FB0004546E0B5060091B0C06804920F00FCF7BA
:105FC000EBFD8146B068FCF72DFCB16882460BA85A
:105FD000FCF734FC0B99F0680591FCF70FFFB168F2
:105FE0008B46411E3000884600F018FC59460200DE
:105FF00006A8FCF749FC049B002B67D03A00002060
:1060000000219F00D719002508CA1B041C0C001989
:106010006941BA42F7D111F035FD041C049812F021
:10602000E5FC011C201C11F0B9FF14F033FB2B4BD5
:10603000002212F017FD11F007FD5246494609F003
:106040000DF8B369041C591E3000B56800F0E6FB7A
:10605000290002000BA8FCF717FC2149201C12F0B4
:1060600067F9059911F09AFFB3690E90591E300037
:10607000B46800F0D3FB6A4602900EAB03CB03C2B8
:1060800020000C9A0B990D9BFCF78EFBF068FCF737
:10609000A5FEB36901300133079306900FF0BAFCF7
:1060A00012F0A4FC41460A903000B46800F0B6FB40
:1060B0006A46029009AB03CB03C22000089B0699F5
:1060C000079AFCF771FBB3690133B361002011B08B
:1060D0003CBC90469946A246AB46F0BD0000E03F6E
:1060E00000007A4470B5050092B00A200C000AF056
:1060F00071FE0A2845D8002C08D00020012C01D0C0
:1061000012B070BD0AF03EFA0020F9E701244423E2
:106110006A46D45401220123009201930223A86805
:1061200002930A94FCF780FB0021061CE868FCF748
:106130006BFE011C301C12F0FBF814F0ABFA124A93
:10614000124B13F0FFFB11F07FFC0E90A8680B942C
:10615000FCF76AFB0121041CE868FCF755FE011CF2
:10616000201C12F0E5F814F095FA074A074B13F0DB
:10617000E9FB11F069FC0F9068460AF059F900201C
:10618000BEE70348BCE7C046FCA9F1D24D62503FD0
:10619000F1550000F0B5DE4645464E465746E0B59F
:1061A000040097B0C068FCF737FE0590E068FCF784
:1061B00035FE0500E068FCF733FE8046E068FCF73A
:1061C00031FE002306000993002D5CD1E7683800FA
:1061D000FCF71EFEFE21890512F0C4F9011C3800EF
:1061E000FCF7A4FCE7683800FCF7C4FC00218146FA
:1061F000E068FCF705FE011C484611F033FD011C68
:106200003800FCF75FFCE068FCF7BEFC071CE068A8
:10621000FCF7FEFD002111F0C1FB002800D05EE17B
:10622000381C14F037FA0022B24B13F0F7FDB24AD3
:10623000B24B13F087FB11F007FC83018246E06844
:106240009B46FCF797FC0121071CE068FCF7D8FD92
:10625000C1468046584614F0F7F90690079141462A
:10626000381C11F0FFFC14F015FAA54AA54B13F0E9
:1062700069FB02000B000698079913F0CFFD11F09F
:10628000E3FBB0463DE08146E068FCF7C1FD00213C
:1062900011F084FB002800D0ECE0E068FCF774FC0F
:1062A00014F0F8F90022934B13F0B8FD934B924A87
:1062B00013F048FB11F0C8FB830182469B46002087
:1062C000012D1ED10121E068FCF79AFD061CE06853
:1062D000FCF750FC011C301C12F044F914F0DAF900
:1062E000874A884B13F02EFB060058460F0014F027
:1062F000ABF902000B003000390012F0B3FB11F0D3
:10630000A3FB58459B415B42C31A9B4680235B011C
:106310009B4501D37C4B9B465346402B01D94023E0
:106320009A46504614F090F90022784B13F00AFB7D
:10633000060058460F0014F087F9754A754B13F0A4
:1063400001FB02000B003000390013F067FD14F070
:10635000E9F9E6680C903000FCF750FD411C300074
:10636000FCF7DAFBE068A668FCF748FD01002000B6
:1063700000F054FA6A4602900DAB03CB03C2300022
:106380000A990B9A0C9BFCF70FFAE068FCF726FDC4
:106390000600E068FCF7F6FB86422BDB012008F0E4
:1063A000BBFB80200021400009F0B4F981200006E9
:1063B00008F078FB09A908A808F0A0FB002008F065
:1063C000ABFB4846099A089909F056FF69426941B2
:1063D000E068FCF7B1FB0121059BE0684B40D9B2B6
:1063E000FCF7A8FB002017B03CBC90469946A2469B
:1063F000AB46F0BD8020800109F0E4F8464B020274
:10640000120A13430600E0680F93FCF7B9FB4349F7
:1064100011F08EFF11F000FB8000800810904048C2
:10642000404B064080201293534600060643180353
:106430005B461843C8231B0618430A23139005988C
:106440001493431E9841C023F4224042DB040340CE
:106450001206E02094464246C00210430002634404
:10646000000A18431590072248460FA9119609F013
:1064700003FFABE7E068FCF7B1FC0600E068FCF75F
:1064800081FB864200DB08E7E068FCF775FB061C31
:10649000E068FCF76DFB011C301C12F063F8002172
:1064A000061CE068FCF7ACFC011C301C11F076FD0A
:1064B00014F0F0F800221C4B12F0D4FA14F05EF83D
:1064C00012F04EFA011CE068FCF730FBE668300081
:1064D000FCF784FC411C3000FCF712FBDDE6E368AE
:1064E00018009946FCF744FB011C4846FCF7EAFA01
:1064F00096E6C04600006940CA1DA0DC01CA9D3F67
:10650000C853823C25C8FD3FFF0F000000304140CA
:10651000111331111331E13F0001008000007A4670
:10652000FFFEFF00020000A70000F83FF0B5C646DE
:10653000050000B50A200AF04DFC0A2800D989E0C0
:1065400000200AF01FFB00200AF03EFA041E7DD056
:1065500080260023F600984612E080208004044242
:1065600038D1002C4BDB80208003044252D18020A4
:106570000002044257D100200AF026FA041E65D01A
:106580003442EAD08020C0000AF0E8F909F0B8FDF2
:106590000700A868FCF79AF9390008F07DFEA868A2
:1065A000FCF794F93A0001002800FFF7FDFC2F00EA
:1065B0002800FFF7EFFD43461C3738006B7709F0E2
:1065C0003DF9012338006B7709F038F98020800409
:1065D0000442C6D00AF0C2F909F092FD0700A8688B
:1065E000FCF774F9390008F057FEA868FCF76EF95B
:1065F0003A0001002800FFF7D7FC002CB3DA802016
:1066000000060AF0ABF902200AF044FA8020800369
:106610000442ACD00AF0A2F902200AF03BFA802032
:1066200000020442A7D00AF099F90A200AF0D2FB2E
:106630000A2802D8002009F0A5FF0AF08DFB0123EB
:1066400000202B750AF0C0F9041E99D1002004BC6B
:106650009046F0BD0048FAE7F1550000F0B5C64697
:106660000400002500B561608AB008002575A561A9
:10667000FCF734F8A0606068FCF732F82700E060AF
:10668000FCF774FA103701000422380014F08BFF75
:106690003900200000F0CAF80123002223772433B8
:1066A000E5540333E584E2540223FF33E3834F4B85
:1066B000804623626068FCF717F83900050005F092
:1066C000B5FB60680521FCF701F800212000FFF709
:1066D00009FD07E0237D002B3DD1280005F0BEFC1D
:1066E000002856D16068FCF701F8052865D160687C
:1066F000FBF7F2FFFBF744FF0028EBD06068FBF7E5
:10670000EBFF0021FBF734FF2000FFF70FFFA0682D
:10671000FCF7DAF8A369471C01009F42DAD2200097
:10672000A66800F07BF83100020005A8FCF7ACF881
:1067300043466A46029308AB03CB03C22800079B7B
:106740000599069A05F0C4FD3900A068FCF75CF8CD
:10675000237D002BC1D0A068FCF7B6F8010007002C
:106760002000A66800F05AF83100020005A8FCF7E6
:106770008BF8A068791CFCF747F8A369BB42ACD141
:1067800060680621FBF7A2FF280005F067FC0028DF
:10679000A8D06068FBF7A6FF0700290005A805F050
:1067A00019FC05A9380005F0C5FA05A80EF086FF0A
:1067B0006068FBF79BFF052899D00A200AF00AFBC6
:1067C0000A2802D8002009F0DDFEA0680021FCF7AD
:1067D0001BF8E0680021FCF79FF9E0680021FCF756
:1067E0008FF900200AB004BC9046F0BD0101010001
:1067F000002300B583B000220021009302480CF072
:1068000009F803B000BDC0465003002000207047C7
:10681000014B083303607047F8E40100080010B52D
:106820000A2111F05BF8080010BDC04670B50C00DD
:106830002749200014F077FE012300280FD0200004
:10684000244914F070FE002833D02578432D08D158
:106850006378412B05D1A2783E3B002A01D1180074
:1068600070BD20001C4914F05EFE002823D0432D8B
:1068700002D16378562B20D02000184914F053FE23
:10688000002821D02000164914F04DFE002819D010
:106890002000144914F047FE002817D020001249A8
:1068A00014F041FE431E98410822434293430933AA
:1068B000D5E70223D3E70423D1E7A278513B002A8E
:1068C000CDD0D9E70723CAE70623C8E70823C6E7E0
:1068D000F0E40100F4E4010070E4010078E4010058
:1068E0007CE4010080E4010084E40100002300B5A1
:1068F00083B000220021009302480BF08BFF03B00D
:1069000000BDC0465803002010B5040003F016FB7C
:10691000024B20000833236010BDC04604E501008F
:10692000F0B5C64600B50500D0B0012008F0F4F877
:106930000021814808F0EEFE002300260CA8037316
:106940007E4B46810C937E4B15AC46720D9308F03E
:1069500075FFA8682662FBF76DFF0223FF332063F3
:106960002387A868FA3B6362FBF772FFA062E868BE
:10697000FCF73EFAE06243425841802340429B00CC
:106980001840704B15969C4660446063E868FCF7BD
:10699000FBF813F07FFE00226B4B13F03FFA6B4ABB
:1069A0006B4B12F0CFFF11F04FF800210600A083CF
:1069B000E868FCF725FA80463004800A13F014FEDC
:1069C000060040460F0013F065FE624A624B12F06B
:1069D000B9FF02000B003000390013F01FFA11F06C
:1069E00033F8A38B82B262839B019A4201DD013AA4
:1069F0006283162300262361EA3323832000666026
:106A0000A660E660666109F0BFF9402124A808F09D
:106A10001FFB02232122E86824922593FCF7BCF88F
:106A200001242690E8682A94FCF7BEF8431C32D172
:106A30006B46AD22E8689B181C70FCF7B1F8431C4C
:106A400036D16A46AE2100235218137024A809F0EB
:106A50000FFA0022002334A83492359336923793EC
:106A600009F074F801213D4808F054FE002009F0B7
:106A700067FC8120000608F015F8002008F04CF8AB
:106A80000BA90AA808F03AF8041E22D0200050B042
:106A900004BC9046F0BDAD226B46E8689B181E70A2
:106AA000FCF782F82790E868FCF77AF8431CC8D016
:106AB000AE216A4601235218E8681370FCF768F8A3
:106AC000AC226B469B181870E868FCF769F82890B0
:106AD000BCE704AE0022A968300010AFFBF7BEFE91
:106AE0003B0007CE07C3380006CE06C3142108F0CA
:106AF000AFFAA868FBF794FE0B9B984219D9A868D7
:106B00001094FBF78BFE69460A9B78603B610B9BF8
:106B10000200BB60A86813AB029460CB60C11099FF
:106B20000B9BFBF723FE78680B9A0A9909F0A4FBEC
:106B3000ACE70B4CAAE7C046E0FF390001010101B8
:106B4000010101003420000000006940CA1DA0DCE2
:106B500001CA9D3FC853823C25C8FD3FA0000100EB
:106B60000B520000F0B5DE4646464F4600238046F5
:106B7000C0B5C06892B00793FCF758F94346DC688B
:106B800083462000FCF73AF901002000FCF73CF9AD
:106B9000011C2000FBF7CAFF5B46002B00DC2FE145
:106BA000002700233D0099464346D868FBF7ECFFD9
:106BB00013F070FD0022944B13F030F9934A944B7C
:106BC00012F0C0FE10F040FF434684012900060089
:106BD000D868FCF715F9071C200013F035FD049068
:106BE0000591381C13F056FD8A4A8B4B12F0AAFE11
:106BF0000B0002000498059913F010F910F024FF1F
:106C0000A042A44180236442041B5B019C4200D348
:106C1000824C3000402E00D94020002D00D1C9E028
:106C200013F012FD00227E4B12F08CFE06002000B5
:106C30000F0013F009FD7B4A7B4B12F083FE02002C
:106C40000B003000390013F0E9F813F06BFD4346F8
:106C50002A00011C0135D868FBF760FFAB45A3D1C2
:106C6000434608A899680022FBF7F8FD4346002236
:106C700099680DA8099CFBF7F1FD0F9B9C460493B6
:106C8000434664442100D868FBF758FF4346A51DDE
:106C90002900D868FBF754FF43460021D868FBF76A
:106CA0004BFF43460121D868FBF744FF012007F062
:106CB00033FF80200021400008F02CFD5B4807F0E6
:106CC000F1FE80200121400008F024FD494658488B
:106CD00008F080FB0A2007F0E5FE2B0255481B0A4E
:106CE000184307F0DFFE07AB190008A807F006FFFE
:106CF000002007F011FF43460DA899680122FBF719
:106D0000ADFD089B6A4611930123029310AB41CB62
:106D100041C24046079B220001218068FBF726FD07
:106D2000079A0899200009F0A7FA012007F0F4FE5D
:106D300080200021400008F0EDFC3C4807F0B2FE46
:106D400080200121400008F0E5FC4946384808F061
:106D500041FB0A2007F0A6FE24023748240A2043FC
:106D600007F0A0FE07A908A807F0C8FE002007F05A
:106D7000D3FE43460DA899680222FBF76FFD089BDE
:106D80006A461193434698680223029310AB12CBD4
:106D900012C22A00079B0221FBF7E8FC2800079A91
:106DA000089909F069FA002012B01CBC9046994677
:106DB000A346F0BD03032343994613F045FC00228C
:106DC000174B12F0BFFD060020000F0013F03CFC33
:106DD000144A154B12F0B6FD02000B0030003900CA
:106DE00013F01CF813F09EFC4346011C0022D868E7
:106DF000FBF794FE5B46012B00D131E70135D3E66A
:106E0000002399462CE7C04600006940CA1DA0DC5B
:106E100001CA9D3FC853823C25C8FD3FFF0F0000BB
:106E200000304140111331111331E13F020000A73E
:106E300020210000000006F4000006FAF0B5C64666
:106E400000B5040098B00A2009F0C4FF0A2856D8FB
:106E500080235B040C9301230B9300230BA80D9359
:106E600009F084F9E068FBF7C3FF00283BD020005D
:106E700003F06AF80021002009F034F901230EAD77
:106E80002B70A06802331193FBF7C6FC0223286124
:106E900028006B60AB6009F0F9F80120404209F06E
:106EA0005DFDE068FBF7C0FF5349002829D0E0688A
:106EB000FBF712FE5049E068FBF710FEA068FBF7F5
:106EC00005FDFA2107F004FE2000FFF729FD051E4D
:106ED00004D12000FFF746FE051E1AD0280018B086
:106EE00004BC9046F0BDA068FBF7A0FC0023139003
:106EF00000221399A0681493FBF72AFCBAE73F4DD0
:106F0000ECE7E068FBF7E8FD3D49E068FBF7E6FDEC
:106F1000D4E704AB984613AFA16818000022FBF732
:106F20009DFC3B00424643CA43C303CA03C3380027
:106F30003D7309F0B7F9012009F052F9139809F0EF
:106F400091F96A46029516AB03CB03C2BB6813994D
:106F50007A68A068FBF70AFC0120404209F0FEFCB9
:106F6000A16840460122FBF779FC3B00424643CA38
:106F700043C303CA03C338003D7309F093F90123E7
:106F80006A46029316AB03CB03C2BB6813997A68B7
:106F9000A068FBF7EBFBA16802224046FBF75EFC12
:106FA00046463B0007CE07C3380006CE06C33D73F6
:106FB00009F078F902236A46029316AB03CB03C2A9
:106FC0007A68BB681399A068FBF7D0FB002009F032
:106FD00007F900210B4808F0FDF9012009F000F93C
:106FE0006068FBF779FB0021FBF7C2FA0321002060
:106FF00008F0EAFB72E7C0460080A2440952000094
:10700000000048436420000010B5040008006160DF
:10701000FBF764FBA0606068FBF762FBE0602000A8
:10702000FFF70CFF10BDC04610B5040002F086FF4C
:10703000024B20000833236010BDC04610E501005C
:10704000F0B5C64600B50500AEB0012007F064FDFE
:107050000021784808F05EFB0023002606A8037391
:10706000754B46810693754B0FAC0793467208F03B
:10707000E5FBA8682662FBF7DDFB0223FF332063F4
:107080002387A868FF3B6362FBF7E2FBA062E86826
:10709000FBF7AEFEE06243425841802340429B0032
:1070A000184034306063E8680F96FBF761FD0021FB
:1070B00010F07EFC002800D1B6E0E868FBF764FD24
:1070C00013F0E8FA00225E4B12F0A8FE5D4A5E4B18
:1070D00012F038FC10F0B8FC86B2E868A683FBF723
:1070E00047FD8046B00113F07FFA060040460F00CE
:1070F00013F0D0FA554A564B12F024FC02000B0054
:107100003000390012F08AFE10F09EFC1423002695
:107110002361EC332383608320006660A660E66011
:10712000666108F031FE40211EA807F091FF02239E
:107130002122E8681E921F93FBF72EFD0124209068
:10714000E8682494FBF730FD431C22D16B4695225E
:10715000E8689B181C70FBF723FD431C26D16A4688
:1071600096210023521813701EA808F081FE81207A
:10717000000607F097FC002007F0CEFC05A904A844
:1071800007F0BCFC041E22D020002EB004BC9046A8
:10719000F0BD95226B46E8689B181E70FBF704FD56
:1071A0002190E868FBF7FCFC431CD8D096216A4686
:1071B00001235218E8681370FBF7EAFC94226B462F
:1071C0009B181870E868FBF7EBFC2290CCE70322D1
:1071D000A9680AA8FBF742FB14210AA807F038FFA8
:1071E000A868FBF71DFB059B984221D90326A868D8
:1071F0000A96FBF713FB049B0B900E93059B020072
:10720000694634200C93012309180B700B00694662
:10721000A868029660CB60C10A99059BFBF7A6FAA5
:107220000AA809F03FF8AFE7E868FBF7AFFC47E7CB
:10723000084CA9E7E0FF390001010100000101004D
:1072400000006940CA1DA0DC01CA9D3FC853823CB2
:1072500025C8FD3F0B520000F0B5040099B0012095
:1072600007F05AFC042009F06BF80121802008F097
:1072700051FAFA20000107F015FC8020012140009E
:1072800008F048FA08A907A807F038FC0500002014
:1072900007F042FC002D02D0280019B0F0BD0222F8
:1072A000A16809A8FBF7DAFA142109A807F0D0FEB3
:1072B000032213A8A168FBF7D1FA089A159B9446FC
:1072C0000593A06863441E00FBF7AAFA864226D203
:1072D0000226A1680EA803220996FBF7BFFAA1684F
:1072E00013A803220F9FFBF7B9FA079B28200D93E1
:1072F000089B02A90B93012309180B706946159A84
:10730000A068D2190A9202960CAB50CB50C10999D1
:10731000089BFBF72BFA09A808F0C4FFBCE7014D56
:10732000BAE7C0460B520000F0B5C64600B50400EF
:1073300090B0C068FBF722FC13F0ACF97D4A7E4B9D
:1073400010F0E8FA002800D1D6E0FE21E0688905B7
:10735000FBF7D2FBE5682800FBF70EFC061CE06893
:10736000FBF708FC071CE068FBF734FD391C80467E
:10737000301C11F0F7F84000400813F08BF96F4A09
:107380006F4B12F0DFFA060040460F0013F082F94F
:1073900002000B003000390011F0CEFE13F0EEF8C1
:1073A00041002800FBF7ACFBE068FBF7E3FB051CA2
:1073B000E068FBF7E1FB011C281C10F0E5FA00284F
:1073C00000D1B0E00121E068FBF79CFBE5682800F4
:1073D000FBF7CEFB13F05EF9594B584A12F0B2FAA4
:1073E00013F0CCF801002800FBF790FBE068FBF7F6
:1073F000F5FC0500E068FBF7C5FB684311F0B0FA47
:10740000011CE068FBF792FBA068FBF709FA022277
:107410000500A16806A8FBF721FA0322A1680BA8C2
:10742000089EFBF71BFA0D9B9C4666440593AD1B1B
:10743000132D00DC7CE0E0680121FBF779FBA168FB
:10744000022206A8FBF70AFA0222A1680BA8089DEF
:10745000FBF704FA0C9BE0689C4665442F0029006A
:107460000A370593FBF76AFBE0683900FBF768FB16
:10747000E0680021FBF760FBE0680021FBF74AFBB6
:10748000E0680021FBF748FBE0680121FBF752FBB5
:10749000052300260D93984602A92B33C9180E70B8
:1074A000694602960B960C950EAB05CB05C10021E3
:1074B0002A000523A068FBF759F90BA808F0F2FE93
:1074C000414630220D9102A98A18012316706A469E
:1074D000A0680B9302930C970EAB12CB12C2012142
:1074E0003A000523FBF742F90BA808F0DBFE002069
:1074F00010B004BC9046F0BDE5682800FBF73EFBE9
:1075000013F0C8F80D4A0E4B12F01CFA00220D4B76
:1075100011F0A8FA13F032F811F022FA011C280039
:10752000FBF7EAFA16E70021E068FBF7EBFA4DE714
:107530000548DDE7111331111331E13FC853823C97
:1075400025C8FD3F0000E03F0B520000F0B5D646D5
:107550004F464646C0B5040098B0C068FBF70CFB28
:10756000051CE068FBF706FB011C281C10F0FAFF65
:107570004000A149400810F025FA002800D026E17B
:10758000E068FBF751FC002800D1F7E0E068FBF76A
:10759000F3FA051CE068FBF7EDFA011C281C10F05B
:1075A00007FA002800D01AE1E068FBF7E3FA13F0CD
:1075B00071F80022914B11F055FA13F0B3F890498D
:1075C000051C10F0FFF9002800D18D4D8D49281CB5
:1075D00010F0E4F9002800D18A4DE068291CFBF77F
:1075E0007BFAE068291CFBF779FA0A2009F0F2FB24
:1075F0000A2800D9E9E080235B040C9302230B9353
:1076000000230BA80D9308F0B1FDE068FBF7F0FB39
:10761000002800D0EBE0A068FBF708F900231390E6
:1076200000221399A0681493FBF792F80021002020
:1076300008F058FD012603230EADA068984611936B
:107640002E70FBF7E9F80227286128006F60AE6012
:1076500008F01CFD0120404209F080F9A068FBF70A
:1076600035F9FA2107F034FA2000FFF7E9FC051E8E
:1076700000D0ADE02000FFF7EFFD051E00D0A7E031
:107680002000FFF751FE051E00D0A1E013AB994684
:1076900004AB9A46A16818000322FBF7DFF84B46BB
:1076A000524643CA43C303CA03C34B4648461D73ED
:1076B00008F0F8FD012008F093FD139808F0D2FDC2
:1076C00043466A46029316AB03CB03C24B4613995B
:1076D0005A68A0689B68FBF749F80120404209F00E
:1076E0003DF9A16850460222FBF7B8F84B465246D6
:1076F00043CA43C303CA03C34B4648461D7308F03D
:10770000D1FD6A46029716AB03CB03C24B461399D1
:107710005A68A0689B68FBF729F8A16800225046C8
:10772000FBF79CF856464B4607CE07C306CE06C36A
:107730004B4648461D7308F0B5FD6A46029516ABE8
:1077400003CB03C24B4613995A68A0689B68FBF7AA
:107750000DF8002008F044FD00212B4807F03AFE08
:10776000012008F03DFD6068FAF7B6FF0021FAF746
:10777000FFFE0321002008F027F829E0E068FBF76E
:10778000FBF9051CE068FBF7F5F9011C281C10F05B
:107790000FF9E568002826D12800FBF7EBF912F075
:1077A00079FF0022154B11F05DF912F0BBFF011CAF
:1077B0002800FBF791F9E0681449FBF78FF90A20DC
:1077C00009F008FB0A2800D815E7114D00E0114D1B
:1077D000280018B01CBC90469946A246F0BDE0684F
:1077E000FBF7CAF9E3E62800FBF7C6F9D7E7200064
:1077F00002F0AAFB1AE7C0460080894500406F40AE
:107800000000E143000016456420000000004843EA
:10781000095200001252000010B504000800616017
:10782000FAF75CFFA0606068FAF75AFFE06020009A
:10783000FFF78CFE10BDC04610B5040002F07EFBC1
:10784000024B20000833236010BDC0461CE5010038
:10785000F0B5C64600B50500D0B0012007F05CF9D0
:107860000021704807F056FF002300260CA8037380
:107870006D4B46810C936D4B15AC46720D9307F022
:10788000DDFFA8682662FAF7D5FF0223FF332063E5
:107890002387A868FA3B6362FAF7DAFFA062E86818
:1078A000FBF7A6FA624AE0624342434188209446CD
:1078B00080005B4203406344E86863631596FBF70E
:1078C00063F912F0E7FE00225A4B12F0A7FA5A4A67
:1078D0005A4B12F037F810F0B7F80600A083E868AA
:1078E000FBF748F980463004800A12F07DFE06005E
:1078F00040460F0012F0CEFE514A524B12F022F8D1
:1079000002000B003000390012F088FA10F09CF8E9
:10791000A38B82B262839B019A4201DD013A6283AA
:10792000162300262361EA33238320006660A660C5
:10793000E660666108F028FA402124A807F088FB79
:1079400021220223E86824922593FBF725F926904B
:10795000E868FBF729F9AC216A46521816806A4696
:107960000123023152182790E86813702A93FBF71D
:1079700017F9289024A808F07BFA0022002334A8E5
:10798000349235933692379308F0E0F801212E486F
:1079900007F0C0FE002008F0D3FC8120000607F0AD
:1079A00081F8002007F0B8F80BA90AA807F0A6F89C
:1079B000041E04D0200050B004BC9046F0BD04AEBC
:1079C0000022A968300010AFFAF748FF3B0007CE4D
:1079D00007C3380006CE06C3142107F039FBA86898
:1079E000FAF71EFF0B9B984219D9A8681094FAF772
:1079F00015FF69460A9B78603B610B9B0200BB60E8
:107A0000A86813AB029460CB60C110990B9BFAF786
:107A1000ADFE78680B9A0A9908F02EFCCAE70B4C69
:107A2000C8E7C046E0FF3900010101010101010082
:107A30001420000000006940CA1DA0DC01CA9D3F5F
:107A4000C853823C25C8FD3FA00001000B52000036
:107A5000F0B5DE464E46454657460023E0B50600E3
:107A600097B0C0680693FBF787F8041CF068FBF733
:107A70007FF8011C201C10F075FD0021041CF0682B
:107A8000FBF7BEF9011C201C10F088FA12F002FE70
:107A90000022D94B10F0E6FF12F070FD10F060FFED
:107AA000011CF068FBF742F8F068FBF76DF812F084
:107AB000F1FD0022D14B12F0B1F9D14AD14B11F0B6
:107AC00041FF0FF0C1FF87018046F068FBF752F8D5
:107AD0008146380012F0B8FD040048460D0012F04F
